{
  "contractName": "Count",
  "abi": [
    {
      "constant": true,
      "inputs": [],
      "name": "count",
      "outputs": [
        {
          "name": "",
          "type": "uint256"
        }
      ],
      "payable": false,
      "stateMutability": "view",
      "type": "function"
    },
    {
      "constant": true,
      "inputs": [],
      "name": "lastParticipant",
      "outputs": [
        {
          "name": "",
          "type": "address"
        }
      ],
      "payable": false,
      "stateMutability": "view",
      "type": "function"
    },
    {
      "constant": false,
      "inputs": [],
      "name": "plus",
      "outputs": [],
      "payable": false,
      "stateMutability": "nonpayable",
      "type": "function"
    },
    {
      "constant": false,
      "inputs": [],
      "name": "minus",
      "outputs": [],
      "payable": false,
      "stateMutability": "nonpayable",
      "type": "function"
    }
  ],
  "bytecode": "0x60806040526000805534801561001457600080fd5b506101ce806100246000396000f3fe608060405234801561001057600080fd5b506004361061004c5760003560e01c806306661abd1461005157806314434fa51461006f57806318b0c3fd14610079578063bfe7e4e314610083575b600080fd5b6100596100cd565b6040518082815260200191505060405180910390f35b6100776100d3565b005b610081610128565b005b61008b61017c565b604051808273ffffffffffffffffffffffffffffffffffffffff1673ffffffffffffffffffffffffffffffffffffffff16815260200191505060405180910390f35b60005481565b60008081548092919060019003919050555033600160006101000a81548173ffffffffffffffffffffffffffffffffffffffff021916908373ffffffffffffffffffffffffffffffffffffffff160217905550565b600080815480929190600101919050555033600160006101000a81548173ffffffffffffffffffffffffffffffffffffffff021916908373ffffffffffffffffffffffffffffffffffffffff160217905550565b600160009054906101000a900473ffffffffffffffffffffffffffffffffffffffff168156fea165627a7a723058201e6fc2201c4442500de699aaf4a1f7b1d750ad21d891faf5760ff651e2ba32d60029",
  "source": "pragma solidity ^0.5.6;\n\ncontract Count {\n  uint public count = 0;\n  address public lastParticipant;\n\n  function plus() public {\n    count++;\n    lastParticipant = msg.sender;\n  }\n\n  function minus() public {\n    count--;\n    lastParticipant = msg.sender;\n  }\n}\n",
  "sourcePath": "/Users/pyunghyuk/klaytn/klaytn-count-app/contracts/Count.sol",
  "compiler": {
    "name": "solc",
    "version": "0.5.6+commit.b259423e.Emscripten.clang"
  },
  "schemaVersion": "3.3.3",
  "updatedAt": "2021-05-27T03:08:10.340Z",
  "networkType": "ethereum",
  "devdoc": {
    "methods": {}
  },
  "userdoc": {
    "methods": {}
  }
}